:100000000C9434100C943E100C943E100C943E1042
:100010000C943E100C943E100C943E100C943E1028
:100020000C943E100C943E100C943E100C943E1018
:100030000C943E100C943E100C943E100C943E1008
:100040000C943E100C943E100C943E100C943E10F8
:100050000C943E100C943E100C943E100C943E10E8
:100060000C943E100C943E100726456483A2C1E018
:10007000FF1E3D5C7B9AB9D8F71635547392B1D008
:10008000EF0E2D4C6B8AA9C8E70625446382A1C0F8
:10009000DFFE1D3C5B7A99B8D7F61534537291B0E8
:1000A000CFEE0D2C4B6A89A8C7E60524436281A0D8
:1000B000BFDEFD1C3B5A7998B7D6F51433527190C8
:1000C000AFCEED0C2B4A6988A7C6E50423426180B8
:1000D0009FBEDDFC1B3A597897B6D5F413325170A8
:1000E0008FAECDEC0B2A496887A6C5E40322416098
:1000F0007F9EBDDCFB1A39587796B5D4F312315088
:100100006F8EADCCEB0A29486786A5C4E302214077
:100110005F7E9DBCDBFA1938577695B4D3F2113067
:100120004F6E8DACCBEA0928476685A4C3E2012057
:100130003F5E7D9CBBDAF91837567594B3D2F11047
:100140002F4E6D8CABCAE90827466584A3C2E10037
:100150001F3E5D7C9BBAD9F81736557493B2D1F027
:100160000F2E4D6C8BAAC9E80726456483A2C1E017
:10017000FF1E3D5C7B9AB9D8F71635547392B1D007
:10018000EF0E2D4C6B8AA9C8E70625446382A1C0F7
:10019000DFFE1D3C5B7A99B8D7F61534537291B0E7
:1001A000CFEE0D2C4B6A89A8C7E60524436281A0D7
:1001B000BFDEFD1C3B5A7998B7D6F51433527190C7
:1001C000AFCEED0C2B4A6988A7C6E50423426180B7
:1001D0009FBEDDFC1B3A597897B6D5F413325170A7
:1001E0008FAECDEC0B2A496887A6C5E40322416097
:1001F0007F9EBDDCFB1A39587796B5D4F312315087
:100200006F8EADCCEB0A29486786A5C4E302214076
:100210005F7E9DBCDBFA1938577695B4D3F2113066
:100220004F6E8DACCBEA0928476685A4C3E2012056
:100230003F5E7D9CBBDAF91837567594B3D2F11046
:100240002F4E6D8CABCAE90827466584A3C2E10036
:100250001F3E5D7C9BBAD9F81736557493B2D1F026
:100260000F2E4D6C8BAAC9E80726456483A2C1E016
:10027000FF1E3D5C7B9AB9D8F71635547392B1D006
:10028000EF0E2D4C6B8AA9C8E70625446382A1C0F6
:10029000DFFE1D3C5B7A99B8D7F61534537291B0E6
:1002A000CFEE0D2C4B6A89A8C7E60524436281A0D6
:1002B000BFDEFD1C3B5A7998B7D6F51433527190C6
:1002C000AFCEED0C2B4A6988A7C6E50423426180B6
:1002D0009FBEDDFC1B3A597897B6D5F413325170A6
:1002E0008FAECDEC0B2A496887A6C5E40322416096
:1002F0007F9EBDDCFB1A39587796B5D4F312315086
:100300006F8EADCCEB0A29486786A5C4E302214075
:100310005F7E9DBCDBFA1938577695B4D3F2113065
:100320004F6E8DACCBEA0928476685A4C3E2012055
:100330003F5E7D9CBBDAF91837567594B3D2F11045
:100340002F4E6D8CABCAE90827466584A3C2E10035
:100350001F3E5D7C9BBAD9F81736557493B2D1F025
:100360000F2E4D6C8BAAC9E80726456483A2C1E015
:10037000FF1E3D5C7B9AB9D8F71635547392B1D005
:10038000EF0E2D4C6B8AA9C8E70625446382A1C0F5
:10039000DFFE1D3C5B7A99B8D7F61534537291B0E5
:1003A000CFEE0D2C4B6A89A8C7E60524436281A0D5
:1003B000BFDEFD1C3B5A7998B7D6F51433527190C5
:1003C000AFCEED0C2B4A6988A7C6E50423426180B5
:1003D0009FBEDDFC1B3A597897B6D5F413325170A5
:1003E0008FAECDEC0B2A496887A6C5E40322416095
:1003F0007F9EBDDCFB1A39587796B5D4F312315085
:100400006F8EADCCEB0A29486786A5C4E302214074
:100410005F7E9DBCDBFA1938577695B4D3F2113064
:100420004F6E8DACCBEA0928476685A4C3E2012054
:100430003F5E7D9CBBDAF91837567594B3D2F11044
:100440002F4E6D8CABCAE90827466584A3C2E10034
:100450001F3E5D7C9BBAD9F81736557493B2D1F024
:100460000F2E4D6C8BAAC9E80726456483A2C1E014
:10047000FF1E3D5C7B9AB9D8F71635547392B1D004
:10048000EF0E2D4C6B8AA9C8E70625446382A1C0F4
:10049000DFFE1D3C5B7A99B8D7F61534537291B0E4
:1004A000CFEE0D2C4B6A89A8C7E60524436281A0D4
:1004B000BFDEFD1C3B5A7998B7D6F51433527190C4
:1004C000AFCEED0C2B4A6988A7C6E50423426180B4
:1004D0009FBEDDFC1B3A597897B6D5F413325170A4
:1004E0008FAECDEC0B2A496887A6C5E40322416094
:1004F0007F9EBDDCFB1A39587796B5D4F312315084
:100500006F8EADCCEB0A29486786A5C4E302214073
:100510005F7E9DBCDBFA1938577695B4D3F2113063
:100520004F6E8DACCBEA0928476685A4C3E2012053
:100530003F5E7D9CBBDAF91837567594B3D2F11043
:100540002F4E6D8CABCAE90827466584A3C2E10033
:100550001F3E5D7C9BBAD9F81736557493B2D1F023
:100560000F2E4D6C8BAAC9E80726456483A2C1E013
:10057000FF1E3D5C7B9AB9D8F71635547392B1D003
:10058000EF0E2D4C6B8AA9C8E70625446382A1C0F3
:10059000DFFE1D3C5B7A99B8D7F61534537291B0E3
:1005A000CFEE0D2C4B6A89A8C7E60524436281A0D3
:1005B000BFDEFD1C3B5A7998B7D6F51433527190C3
:1005C000AFCEED0C2B4A6988A7C6E50423426180B3
:1005D0009FBEDDFC1B3A597897B6D5F413325170A3
:1005E0008FAECDEC0B2A496887A6C5E40322416093
:1005F0007F9EBDDCFB1A39587796B5D4F312315083
:100600006F8EADCCEB0A29486786A5C4E302214072
:100610005F7E9DBCDBFA1938577695B4D3F2113062
:100620004F6E8DACCBEA0928476685A4C3E2012052
:100630003F5E7D9CBBDAF91837567594B3D2F11042
:100640002F4E6D8CABCAE90827466584A3C2E10032
:100650001F3E5D7C9BBAD9F81736557493B2D1F022
:100660000F2E4D6C8BAAC9E80726456483A2C1E012
:10067000FF1E3D5C7B9AB9D8F71635547392B1D002
:10068000EF0E2D4C6B8AA9C8E70625446382A1C0F2
:10069000DFFE1D3C5B7A99B8D7F61534537291B0E2
:1006A000CFEE0D2C4B6A89A8C7E60524436281A0D2
:1006B000BFDEFD1C3B5A7998B7D6F51433527190C2
:1006C000AFCEED0C2B4A6988A7C6E50423426180B2
:1006D0009FBEDDFC1B3A597897B6D5F413325170A2
:1006E0008FAECDEC0B2A496887A6C5E40322416092
:1006F0007F9EBDDCFB1A39587796B5D4F312315082
:100700006F8EADCCEB0A29486786A5C4E302214071
:100710005F7E9DBCDBFA1938577695B4D3F2113061
:100720004F6E8DACCBEA0928476685A4C3E2012051
:100730003F5E7D9CBBDAF91837567594B3D2F11041
:100740002F4E6D8CABCAE90827466584A3C2E10031
:100750001F3E5D7C9BBAD9F81736557493B2D1F021
:100760000F2E4D6C8BAAC9E80726456483A2C1E011
:10077000FF1E3D5C7B9AB9D8F71635547392B1D001
:10078000EF0E2D4C6B8AA9C8E70625446382A1C0F1
:10079000DFFE1D3C5B7A99B8D7F61534537291B0E1
:1007A000CFEE0D2C4B6A89A8C7E60524436281A0D1
:1007B000BFDEFD1C3B5A7998B7D6F51433527190C1
:1007C000AFCEED0C2B4A6988A7C6E50423426180B1
:1007D0009FBEDDFC1B3A597897B6D5F413325170A1
:1007E0008FAECDEC0B2A496887A6C5E40322416091
:1007F0007F9EBDDCFB1A39587796B5D4F312315081
:100800006F8EADCCEB0A29486786A5C4E302214070
:100810005F7E9DBCDBFA1938577695B4D3F2113060
:100820004F6E8DACCBEA0928476685A4C3E2012050
:100830003F5E7D9CBBDAF91837567594B3D2F11040
:100840002F4E6D8CABCAE90827466584A3C2E10030
:100850001F3E5D7C9BBAD9F81736557493B2D1F020
:100860000F2E4D6C8BAAC9E80726456483A2C1E010
:10087000FF1E3D5C7B9AB9D8F71635547392B1D000
:10088000EF0E2D4C6B8AA9C8E70625446382A1C0F0
:10089000DFFE1D3C5B7A99B8D7F61534537291B0E0
:1008A000CFEE0D2C4B6A89A8C7E60524436281A0D0
:1008B000BFDEFD1C3B5A7998B7D6F51433527190C0
:1008C000AFCEED0C2B4A6988A7C6E50423426180B0
:1008D0009FBEDDFC1B3A597897B6D5F413325170A0
:1008E0008FAECDEC0B2A496887A6C5E40322416090
:1008F0007F9EBDDCFB1A39587796B5D4F312315080
:100900006F8EADCCEB0A29486786A5C4E30221406F
:100910005F7E9DBCDBFA1938577695B4D3F211305F
:100920004F6E8DACCBEA0928476685A4C3E201204F
:100930003F5E7D9CBBDAF91837567594B3D2F1103F
:100940002F4E6D8CABCAE90827466584A3C2E1002F
:100950001F3E5D7C9BBAD9F81736557493B2D1F01F
:100960000F2E4D6C8BAAC9E80726456483A2C1E00F
:10097000FF1E3D5C7B9AB9D8F71635547392B1D0FF
:10098000EF0E2D4C6B8AA9C8E70625446382A1C0EF
:10099000DFFE1D3C5B7A99B8D7F61534537291B0DF
:1009A000CFEE0D2C4B6A89A8C7E60524436281A0CF
:1009B000BFDEFD1C3B5A7998B7D6F51433527190BF
:1009C000AFCEED0C2B4A6988A7C6E50423426180AF
:1009D0009FBEDDFC1B3A597897B6D5F4133251709F
:1009E0008FAECDEC0B2A496887A6C5E4032241608F
:1009F0007F9EBDDCFB1A39587796B5D4F31231507F
:100A00006F8EADCCEB0A29486786A5C4E30221406E
:100A10005F7E9DBCDBFA1938577695B4D3F211305E
:100A20004F6E8DACCBEA0928476685A4C3E201204E
:100A30003F5E7D9CBBDAF91837567594B3D2F1103E
:100A40002F4E6D8CABCAE90827466584A3C2E1002E
:100A50001F3E5D7C9BBAD9F81736557493B2D1F01E
:100A60000F2E4D6C8BAAC9E80726456483A2C1E00E
:100A7000FF1E3D5C7B9AB9D8F71635547392B1D0FE
:100A8000EF0E2D4C6B8AA9C8E70625446382A1C0EE
:100A9000DFFE1D3C5B7A99B8D7F61534537291B0DE
:100AA000CFEE0D2C4B6A89A8C7E60524436281A0CE
:100AB000BFDEFD1C3B5A7998B7D6F51433527190BE
:100AC000AFCEED0C2B4A6988A7C6E50423426180AE
:100AD0009FBEDDFC1B3A597897B6D5F4133251709E
:100AE0008FAECDEC0B2A496887A6C5E4032241608E
:100AF0007F9EBDDCFB1A39587796B5D4F31231507E
:100B00006F8EADCCEB0A29486786A5C4E30221406D
:100B10005F7E9DBCDBFA1938577695B4D3F211305D
:100B20004F6E8DACCBEA0928476685A4C3E201204D
:100B30003F5E7D9CBBDAF91837567594B3D2F1103D
:100B40002F4E6D8CABCAE90827466584A3C2E1002D
:100B50001F3E5D7C9BBAD9F81736557493B2D1F01D
:100B60000F2E4D6C8BAAC9E80726456483A2C1E00D
:100B7000FF1E3D5C7B9AB9D8F71635547392B1D0FD
:100B8000EF0E2D4C6B8AA9C8E70625446382A1C0ED
:100B9000DFFE1D3C5B7A99B8D7F61534537291B0DD
:100BA000CFEE0D2C4B6A89A8C7E60524436281A0CD
:100BB000BFDEFD1C3B5A7998B7D6F51433527190BD
:100BC000AFCEED0C2B4A6988A7C6E50423426180AD
:100BD0009FBEDDFC1B3A597897B6D5F4133251709D
:100BE0008FAECDEC0B2A496887A6C5E4032241608D
:100BF0007F9EBDDCFB1A39587796B5D4F31231507D
:100C00006F8EADCCEB0A29486786A5C4E30221406C
:100C10005F7E9DBCDBFA1938577695B4D3F211305C
:100C20004F6E8DACCBEA0928476685A4C3E201204C
:100C30003F5E7D9CBBDAF91837567594B3D2F1103C
:100C40002F4E6D8CABCAE90827466584A3C2E1002C
:100C50001F3E5D7C9BBAD9F81736557493B2D1F01C
:100C60000F2E4D6C8BAAC9E80726456483A2C1E00C
:100C7000FF1E3D5C7B9AB9D8F71635547392B1D0FC
:100C8000EF0E2D4C6B8AA9C8E70625446382A1C0EC
:100C9000DFFE1D3C5B7A99B8D7F61534537291B0DC
:100CA000CFEE0D2C4B6A89A8C7E60524436281A0CC
:100CB000BFDEFD1C3B5A7998B7D6F51433527190BC
:100CC000AFCEED0C2B4A6988A7C6E50423426180AC
:100CD0009FBEDDFC1B3A597897B6D5F4133251709C
:100CE0008FAECDEC0B2A496887A6C5E4032241608C
:100CF0007F9EBDDCFB1A39587796B5D4F31231507C
:100D00006F8EADCCEB0A29486786A5C4E30221406B
:100D10005F7E9DBCDBFA1938577695B4D3F211305B
:100D20004F6E8DACCBEA0928476685A4C3E201204B
:100D30003F5E7D9CBBDAF91837567594B3D2F1103B
:100D40002F4E6D8CABCAE90827466584A3C2E1002B
:100D50001F3E5D7C9BBAD9F81736557493B2D1F01B
:100D60000F2E4D6C8BAAC9E80726456483A2C1E00B
:100D7000FF1E3D5C7B9AB9D8F71635547392B1D0FB
:100D8000EF0E2D4C6B8AA9C8E70625446382A1C0EB
:100D9000DFFE1D3C5B7A99B8D7F61534537291B0DB
:100DA000CFEE0D2C4B6A89A8C7E60524436281A0CB
:100DB000BFDEFD1C3B5A7998B7D6F51433527190BB
:100DC000AFCEED0C2B4A6988A7C6E50423426180AB
:100DD0009FBEDDFC1B3A597897B6D5F4133251709B
:100DE0008FAECDEC0B2A496887A6C5E4032241608B
:100DF0007F9EBDDCFB1A39587796B5D4F31231507B
:100E00006F8EADCCEB0A29486786A5C4E30221406A
:100E10005F7E9DBCDBFA1938577695B4D3F211305A
:100E20004F6E8DACCBEA0928476685A4C3E201204A
:100E30003F5E7D9CBBDAF91837567594B3D2F1103A
:100E40002F4E6D8CABCAE90827466584A3C2E1002A
:100E50001F3E5D7C9BBAD9F81736557493B2D1F01A
:100E60000F2E4D6C8BAAC9E80726456483A2C1E00A
:100E7000FF1E3D5C7B9AB9D8F71635547392B1D0FA
:100E8000EF0E2D4C6B8AA9C8E70625446382A1C0EA
:100E9000DFFE1D3C5B7A99B8D7F61534537291B0DA
:100EA000CFEE0D2C4B6A89A8C7E60524436281A0CA
:100EB000BFDEFD1C3B5A7998B7D6F51433527190BA
:100EC000AFCEED0C2B4A6988A7C6E50423426180AA
:100ED0009FBEDDFC1B3A597897B6D5F4133251709A
:100EE0008FAECDEC0B2A496887A6C5E4032241608A
:100EF0007F9EBDDCFB1A39587796B5D4F31231507A
:100F00006F8EADCCEB0A29486786A5C4E302214069
:100F10005F7E9DBCDBFA1938577695B4D3F2113059
:100F20004F6E8DACCBEA0928476685A4C3E2012049
:100F30003F5E7D9CBBDAF91837567594B3D2F11039
:100F40002F4E6D8CABCAE90827466584A3C2E10029
:100F50001F3E5D7C9BBAD9F81736557493B2D1F019
:100F60000F2E4D6C8BAAC9E80726456483A2C1E009
:100F7000FF1E3D5C7B9AB9D8F71635547392B1D0F9
:100F8000EF0E2D4C6B8AA9C8E70625446382A1C0E9
:100F9000DFFE1D3C5B7A99B8D7F61534537291B0D9
:100FA000CFEE0D2C4B6A89A8C7E60524436281A0C9
:100FB000BFDEFD1C3B5A7998B7D6F51433527190B9
:100FC000AFCEED0C2B4A6988A7C6E50423426180A9
:100FD0009FBEDDFC1B3A597897B6D5F41332517099
:100FE0008FAECDEC0B2A496887A6C5E40322416089
:100FF0007F9EBDDCFB1A39587796B5D4F312315079
:101000006F8EADCCEB0A29486786A5C4E302214068
:101010005F7E9DBCDBFA1938577695B4D3F2113058
:101020004F6E8DACCBEA0928476685A4C3E2012048
:101030003F5E7D9CBBDAF91837567594B3D2F11038
:101040002F4E6D8CABCAE90827466584A3C2E10028
:101050001F3E5D7C9BBAD9F81736557493B2D1F018
:101060000F2E4D6C8BAAC9E80726456483A2C1E008
:10107000FF1E3D5C7B9AB9D8F71635547392B1D0F8
:10108000EF0E2D4C6B8AA9C8E70625446382A1C0E8
:10109000DFFE1D3C5B7A99B8D7F61534537291B0D8
:1010A000CFEE0D2C4B6A89A8C7E60524436281A0C8
:1010B000BFDEFD1C3B5A7998B7D6F51433527190B8
:1010C000AFCEED0C2B4A6988A7C6E50423426180A8
:1010D0009FBEDDFC1B3A597897B6D5F41332517098
:1010E0008FAECDEC0B2A496887A6C5E40322416088
:1010F0007F9EBDDCFB1A39587796B5D4F312315078
:101100006F8EADCCEB0A29486786A5C4E302214067
:101110005F7E9DBCDBFA1938577695B4D3F2113057
:101120004F6E8DACCBEA0928476685A4C3E2012047
:101130003F5E7D9CBBDAF91837567594B3D2F11037
:101140002F4E6D8CABCAE90827466584A3C2E10027
:101150001F3E5D7C9BBAD9F81736557493B2D1F017
:101160000F2E4D6C8BAAC9E80726456483A2C1E007
:10117000FF1E3D5C7B9AB9D8F71635547392B1D0F7
:10118000EF0E2D4C6B8AA9C8E70625446382A1C0E7
:10119000DFFE1D3C5B7A99B8D7F61534537291B0D7
:1011A000CFEE0D2C4B6A89A8C7E60524436281A0C7
:1011B000BFDEFD1C3B5A7998B7D6F51433527190B7
:1011C000AFCEED0C2B4A6988A7C6E50423426180A7
:1011D0009FBEDDFC1B3A597897B6D5F41332517097
:1011E0008FAECDEC0B2A496887A6C5E40322416087
:1011F0007F9EBDDCFB1A39587796B5D4F312315077
:101200006F8EADCCEB0A29486786A5C4E302214066
:101210005F7E9DBCDBFA1938577695B4D3F2113056
:101220004F6E8DACCBEA0928476685A4C3E2012046
:101230003F5E7D9CBBDAF91837567594B3D2F11036
:101240002F4E6D8CABCAE90827466584A3C2E10026
:101250001F3E5D7C9BBAD9F81736557493B2D1F016
:101260000F2E4D6C8BAAC9E80726456483A2C1E006
:10127000FF1E3D5C7B9AB9D8F71635547392B1D0F6
:10128000EF0E2D4C6B8AA9C8E70625446382A1C0E6
:10129000DFFE1D3C5B7A99B8D7F61534537291B0D6
:1012A000CFEE0D2C4B6A89A8C7E60524436281A0C6
:1012B000BFDEFD1C3B5A7998B7D6F51433527190B6
:1012C000AFCEED0C2B4A6988A7C6E50423426180A6
:1012D0009FBEDDFC1B3A597897B6D5F41332517096
:1012E0008FAECDEC0B2A496887A6C5E40322416086
:1012F0007F9EBDDCFB1A39587796B5D4F312315076
:101300006F8EADCCEB0A29486786A5C4E302214065
:101310005F7E9DBCDBFA1938577695B4D3F2113055
:101320004F6E8DACCBEA0928476685A4C3E2012045
:101330003F5E7D9CBBDAF91837567594B3D2F11035
:101340002F4E6D8CABCAE90827466584A3C2E10025
:101350001F3E5D7C9BBAD9F81736557493B2D1F015
:101360000F2E4D6C8BAAC9E80726456483A2C1E005
:10137000FF1E3D5C7B9AB9D8F71635547392B1D0F5
:10138000EF0E2D4C6B8AA9C8E70625446382A1C0E5
:10139000DFFE1D3C5B7A99B8D7F61534537291B0D5
:1013A000CFEE0D2C4B6A89A8C7E60524436281A0C5
:1013B000BFDEFD1C3B5A7998B7D6F51433527190B5
:1013C000AFCEED0C2B4A6988A7C6E50423426180A5
:1013D0009FBEDDFC1B3A597897B6D5F41332517095
:1013E0008FAECDEC0B2A496887A6C5E40322416085
:1013F0007F9EBDDCFB1A39587796B5D4F312315075
:101400006F8EADCCEB0A29486786A5C4E302214064
:101410005F7E9DBCDBFA1938577695B4D3F2113054
:101420004F6E8DACCBEA0928476685A4C3E2012044
:101430003F5E7D9CBBDAF91837567594B3D2F11034
:101440002F4E6D8CABCAE90827466584A3C2E10024
:101450001F3E5D7C9BBAD9F81736557493B2D1F014
:101460000F2E4D6C8BAAC9E80726456483A2C1E004
:10147000FF1E3D5C7B9AB9D8F71635547392B1D0F4
:10148000EF0E2D4C6B8AA9C8E70625446382A1C0E4
:10149000DFFE1D3C5B7A99B8D7F61534537291B0D4
:1014A000CFEE0D2C4B6A89A8C7E60524436281A0C4
:1014B000BFDEFD1C3B5A7998B7D6F51433527190B4
:1014C000AFCEED0C2B4A6988A7C6E50423426180A4
:1014D0009FBEDDFC1B3A597897B6D5F41332517094
:1014E0008FAECDEC0B2A496887A6C5E40322416084
:1014F0007F9EBDDCFB1A39587796B5D4F312315074
:101500006F8EADCCEB0A29486786A5C4E302214063
:101510005F7E9DBCDBFA1938577695B4D3F2113053
:101520004F6E8DACCBEA0928476685A4C3E2012043
:101530003F5E7D9CBBDAF91837567594B3D2F11033
:101540002F4E6D8CABCAE90827466584A3C2E10023
:101550001F3E5D7C9BBAD9F81736557493B2D1F013
:101560000F2E4D6C8BAAC9E80726456483A2C1E003
:10157000FF1E3D5C7B9AB9D8F71635547392B1D0F3
:10158000EF0E2D4C6B8AA9C8E70625446382A1C0E3
:10159000DFFE1D3C5B7A99B8D7F61534537291B0D3
:1015A000CFEE0D2C4B6A89A8C7E60524436281A0C3
:1015B000BFDEFD1C3B5A7998B7D6F51433527190B3
:1015C000AFCEED0C2B4A6988A7C6E50423426180A3
:1015D0009FBEDDFC1B3A597897B6D5F41332517093
:1015E0008FAECDEC0B2A496887A6C5E40322416083
:1015F0007F9EBDDCFB1A39587796B5D4F312315073
:101600006F8EADCCEB0A29486786A5C4E302214062
:101610005F7E9DBCDBFA1938577695B4D3F2113052
:101620004F6E8DACCBEA0928476685A4C3E2012042
:101630003F5E7D9CBBDAF91837567594B3D2F11032
:101640002F4E6D8CABCAE90827466584A3C2E10022
:101650001F3E5D7C9BBAD9F81736557493B2D1F012
:101660000F2E4D6C8BAAC9E80726456483A2C1E002
:10167000FF1E3D5C7B9AB9D8F71635547392B1D0F2
:10168000EF0E2D4C6B8AA9C8E70625446382A1C0E2
:10169000DFFE1D3C5B7A99B8D7F61534537291B0D2
:1016A000CFEE0D2C4B6A89A8C7E60524436281A0C2
:1016B000BFDEFD1C3B5A7998B7D6F51433527190B2
:1016C000AFCEED0C2B4A6988A7C6E50423426180A2
:1016D0009FBEDDFC1B3A597897B6D5F41332517092
:1016E0008FAECDEC0B2A496887A6C5E40322416082
:1016F0007F9EBDDCFB1A39587796B5D4F312315072
:101700006F8EADCCEB0A29486786A5C4E302214061
:101710005F7E9DBCDBFA1938577695B4D3F2113051
:101720004F6E8DACCBEA0928476685A4C3E2012041
:101730003F5E7D9CBBDAF91837567594B3D2F11031
:101740002F4E6D8CABCAE90827466584A3C2E10021
:101750001F3E5D7C9BBAD9F81736557493B2D1F011
:101760000F2E4D6C8BAAC9E80726456483A2C1E001
:10177000FF1E3D5C7B9AB9D8F71635547392B1D0F1
:10178000EF0E2D4C6B8AA9C8E70625446382A1C0E1
:10179000DFFE1D3C5B7A99B8D7F61534537291B0D1
:1017A000CFEE0D2C4B6A89A8C7E60524436281A0C1
:1017B000BFDEFD1C3B5A7998B7D6F51433527190B1
:1017C000AFCEED0C2B4A6988A7C6E50423426180A1
:1017D0009FBEDDFC1B3A597897B6D5F41332517091
:1017E0008FAECDEC0B2A496887A6C5E40322416081
:1017F0007F9EBDDCFB1A39587796B5D4F312315071
:101800006F8EADCCEB0A29486786A5C4E302214060
:101810005F7E9DBCDBFA1938577695B4D3F2113050
:101820004F6E8DACCBEA0928476685A4C3E2012040
:101830003F5E7D9CBBDAF91837567594B3D2F11030
:101840002F4E6D8CABCAE90827466584A3C2E10020
:101850001F3E5D7C9BBAD9F81736557493B2D1F010
:101860000F2E4D6C8BAAC9E80726456483A2C1E000
:10187000FF1E3D5C7B9AB9D8F71635547392B1D0F0
:10188000EF0E2D4C6B8AA9C8E70625446382A1C0E0
:10189000DFFE1D3C5B7A99B8D7F61534537291B0D0
:1018A000CFEE0D2C4B6A89A8C7E60524436281A0C0
:1018B000BFDEFD1C3B5A7998B7D6F51433527190B0
:1018C000AFCEED0C2B4A6988A7C6E50423426180A0
:1018D0009FBEDDFC1B3A597897B6D5F41332517090
:1018E0008FAECDEC0B2A496887A6C5E40322416080
:1018F0007F9EBDDCFB1A39587796B5D4F312315070
:101900006F8EADCCEB0A29486786A5C4E30221405F
:101910005F7E9DBCDBFA1938577695B4D3F211304F
:101920004F6E8DACCBEA0928476685A4C3E201203F
:101930003F5E7D9CBBDAF91837567594B3D2F1102F
:101940002F4E6D8CABCAE90827466584A3C2E1001F
:101950001F3E5D7C9BBAD9F81736557493B2D1F00F
:101960000F2E4D6C8BAAC9E80726456483A2C1E0FF
:10197000FF1E3D5C7B9AB9D8F71635547392B1D0EF
:10198000EF0E2D4C6B8AA9C8E70625446382A1C0DF
:10199000DFFE1D3C5B7A99B8D7F61534537291B0CF
:1019A000CFEE0D2C4B6A89A8C7E60524436281A0BF
:1019B000BFDEFD1C3B5A7998B7D6F51433527190AF
:1019C000AFCEED0C2B4A6988A7C6E504234261809F
:1019D0009FBEDDFC1B3A597897B6D5F4133251708F
:1019E0008FAECDEC0B2A496887A6C5E4032241607F
:1019F0007F9EBDDCFB1A39587796B5D4F31231506F
:101A00006F8EADCCEB0A29486786A5C4E30221405E
:101A10005F7E9DBCDBFA1938577695B4D3F211304E
:101A20004F6E8DACCBEA0928476685A4C3E201203E
:101A30003F5E7D9CBBDAF91837567594B3D2F1102E
:101A40002F4E6D8CABCAE90827466584A3C2E1001E
:101A50001F3E5D7C9BBAD9F81736557493B2D1F00E
:101A60000F2E4D6C8BAAC9E80726456483A2C1E0FE
:101A7000FF1E3D5C7B9AB9D8F71635547392B1D0EE
:101A8000EF0E2D4C6B8AA9C8E70625446382A1C0DE
:101A9000DFFE1D3C5B7A99B8D7F61534537291B0CE
:101AA000CFEE0D2C4B6A89A8C7E60524436281A0BE
:101AB000BFDEFD1C3B5A7998B7D6F51433527190AE
:101AC000AFCEED0C2B4A6988A7C6E504234261809E
:101AD0009FBEDDFC1B3A597897B6D5F4133251708E
:101AE0008FAECDEC0B2A496887A6C5E4032241607E
:101AF0007F9EBDDCFB1A39587796B5D4F31231506E
:101B00006F8EADCCEB0A29486786A5C4E30221405D
:101B10005F7E9DBCDBFA1938577695B4D3F211304D
:101B20004F6E8DACCBEA0928476685A4C3E201203D
:101B30003F5E7D9CBBDAF91837567594B3D2F1102D
:101B40002F4E6D8CABCAE90827466584A3C2E1001D
:101B50001F3E5D7C9BBAD9F81736557493B2D1F00D
:101B60000F2E4D6C8BAAC9E80726456483A2C1E0FD
:101B7000FF1E3D5C7B9AB9D8F71635547392B1D0ED
:101B8000EF0E2D4C6B8AA9C8E70625446382A1C0DD
:101B9000DFFE1D3C5B7A99B8D7F61534537291B0CD
:101BA000CFEE0D2C4B6A89A8C7E60524436281A0BD
:101BB000BFDEFD1C3B5A7998B7D6F51433527190AD
:101BC000AFCEED0C2B4A6988A7C6E504234261809D
:101BD0009FBEDDFC1B3A597897B6D5F4133251708D
:101BE0008FAECDEC0B2A496887A6C5E4032241607D
:101BF0007F9EBDDCFB1A39587796B5D4F31231506D
:101C00006F8EADCCEB0A29486786A5C4E30221405C
:101C10005F7E9DBCDBFA1938577695B4D3F211304C
:101C20004F6E8DACCBEA0928476685A4C3E201203C
:101C30003F5E7D9CBBDAF91837567594B3D2F1102C
:101C40002F4E6D8CABCAE90827466584A3C2E1001C
:101C50001F3E5D7C9BBAD9F81736557493B2D1F00C
:101C60000F2E4D6C8BAAC9E80726456483A2C1E0FC
:101C7000FF1E3D5C7B9AB9D8F71635547392B1D0EC
:101C8000EF0E2D4C6B8AA9C8E70625446382A1C0DC
:101C9000DFFE1D3C5B7A99B8D7F61534537291B0CC
:101CA000CFEE0D2C4B6A89A8C7E60524436281A0BC
:101CB000BFDEFD1C3B5A7998B7D6F51433527190AC
:101CC000AFCEED0C2B4A6988A7C6E504234261809C
:101CD0009FBEDDFC1B3A597897B6D5F4133251708C
:101CE0008FAECDEC0B2A496887A6C5E4032241607C
:101CF0007F9EBDDCFB1A39587796B5D4F31231506C
:101D00006F8EADCCEB0A29486786A5C4E30221405B
:101D10005F7E9DBCDBFA1938577695B4D3F211304B
:101D20004F6E8DACCBEA0928476685A4C3E201203B
:101D30003F5E7D9CBBDAF91837567594B3D2F1102B
:101D40002F4E6D8CABCAE90827466584A3C2E1001B
:101D50001F3E5D7C9BBAD9F81736557493B2D1F00B
:101D60000F2E4D6C8BAAC9E80726456483A2C1E0FB
:101D7000FF1E3D5C7B9AB9D8F71635547392B1D0EB
:101D8000EF0E2D4C6B8AA9C8E70625446382A1C0DB
:101D9000DFFE1D3C5B7A99B8D7F61534537291B0CB
:101DA000CFEE0D2C4B6A89A8C7E60524436281A0BB
:101DB000BFDEFD1C3B5A7998B7D6F51433527190AB
:101DC000AFCEED0C2B4A6988A7C6E504234261809B
:101DD0009FBEDDFC1B3A597897B6D5F4133251708B
:101DE0008FAECDEC0B2A496887A6C5E4032241607B
:101DF0007F9EBDDCFB1A39587796B5D4F31231506B
:101E00006F8EADCCEB0A29486786A5C4E30221405A
:101E10005F7E9DBCDBFA1938577695B4D3F211304A
:101E20004F6E8DACCBEA0928476685A4C3E201203A
:101E30003F5E7D9CBBDAF91837567594B3D2F1102A
:101E40002F4E6D8CABCAE90827466584A3C2E1001A
:101E50001F3E5D7C9BBAD9F81736557493B2D1F00A
:101E60000F2E4D6C8BAAC9E80726456483A2C1E0FA
:101E7000FF1E3D5C7B9AB9D8F71635547392B1D0EA
:101E8000EF0E2D4C6B8AA9C8E70625446382A1C0DA
:101E9000DFFE1D3C5B7A99B8D7F61534537291B0CA
:101EA000CFEE0D2C4B6A89A8C7E60524436281A0BA
:101EB000BFDEFD1C3B5A7998B7D6F51433527190AA
:101EC000AFCEED0C2B4A6988A7C6E504234261809A
:101ED0009FBEDDFC1B3A597897B6D5F4133251708A
:101EE0008FAECDEC0B2A496887A6C5E4032241607A
:101EF0007F9EBDDCFB1A39587796B5D4F31231506A
:101F00006F8EADCCEB0A29486786A5C4E302214059
:101F10005F7E9DBCDBFA1938577695B4D3F2113049
:101F20004F6E8DACCBEA0928476685A4C3E2012039
:101F30003F5E7D9CBBDAF91837567594B3D2F11029
:101F40002F4E6D8CABCAE90827466584A3C2E10019
:101F50001F3E5D7C9BBAD9F81736557493B2D1F009
:101F60000F2E4D6C8BAAC9E80726456483A2C1E0F9
:101F7000FF1E3D5C7B9AB9D8F71635547392B1D0E9
:101F8000EF0E2D4C6B8AA9C8E70625446382A1C0D9
:101F9000DFFE1D3C5B7A99B8D7F61534537291B0C9
:101FA000CFEE0D2C4B6A89A8C7E60524436281A0B9
:101FB000BFDEFD1C3B5A7998B7D6F51433527190A9
:101FC000AFCEED0C2B4A6988A7C6E5042342618099
:101FD0009FBEDDFC1B3A597897B6D5F41332517089
:101FE0008FAECDEC0B2A496887A6C5E40322416079
:101FF0007F9EBDDCFB1A39587796B5D4F312315069
:102000006F8EADCCEB0A29486786A5C4E302214058
:102010005F7E9DBCDBFA1938577695B4D3F2113048
:102020004F6E8DACCBEA0928476685A4C3E2012038
:102030003F5E7D9CBBDAF91837567594B3D2F11028
:102040002F4E6D8CABCAE90827466584A3C2E10018
:102050001F3E5D7C9BBAD9F81736557493B2D1F008
:102060000F2E4D6C8BAAC9E811241FBECFEFD8E00C
:10207000DEBFCDBF0E9440100C9471100C94000084
:10208000CF93DF931F92CDB7DEB7E8E6F0E0E4919F
:10209000E983898180E88093610091E090936100F9
:1020A0009091F2009F799EBB8093F2009EB3909333
:1020B000F2009091F2009B7F9EBB8093F2008EB362
:1020C0008093F200259A90E285B1892785B92FEF98
:1020D00039E688E1215030408040E1F700C000003F
:0620E000F3CFF894FFCFDE
:00000001FF
